{"abi":[{"type":"constructor","inputs":[],"stateMutability":"nonpayable"},{"type":"function","name":"PoCIsWhat","inputs":[],"outputs":[{"name":"","type":"string","internalType":"string"}],"stateMutability":"view"},{"type":"function","name":"_areYouABadPerson","inputs":[],"outputs":[{"name":"","type":"bool","internalType":"bool"}],"stateMutability":"view"},{"type":"function","name":"_getMyEthereumContractAddress","inputs":[],"outputs":[{"name":"","type":"address","internalType":"address"}],"stateMutability":"view"},{"type":"function","name":"_setAreYouABadPerson","inputs":[{"name":"_value","type":"bool","internalType":"bool"}],"outputs":[],"stateMutability":"nonpayable"},{"type":"function","name":"addToBalance","inputs":[{"name":"value","type":"uint256","internalType":"uint256"}],"outputs":[],"stateMutability":"payable"},{"type":"function","name":"balances","inputs":[{"name":"","type":"address","internalType":"address"}],"outputs":[{"name":"","type":"uint256","internalType":"uint256"}],"stateMutability":"view"},{"type":"function","name":"completeHalfAnswerOfLife","inputs":[],"outputs":[],"stateMutability":"nonpayable"},{"type":"function","name":"editMyCity","inputs":[{"name":"_city","type":"string","internalType":"string"}],"outputs":[],"stateMutability":"nonpayable"},{"type":"function","name":"getHalfAnswerOfLife","inputs":[],"outputs":[{"name":"","type":"uint256","internalType":"uint256"}],"stateMutability":"view"},{"type":"function","name":"getMyBalance","inputs":[],"outputs":[{"name":"","type":"uint256","internalType":"uint256"}],"stateMutability":"view"},{"type":"function","name":"getMyCity","inputs":[],"outputs":[{"name":"","type":"string","internalType":"string"}],"stateMutability":"view"},{"type":"function","name":"getMyFullName","inputs":[],"outputs":[{"name":"","type":"string","internalType":"string"}],"stateMutability":"view"},{"type":"function","name":"getPoCIsWhat","inputs":[],"outputs":[{"name":"","type":"string","internalType":"string"}],"stateMutability":"view"},{"type":"function","name":"halfAnswerOfLife","inputs":[],"outputs":[{"name":"","type":"uint256","internalType":"uint256"}],"stateMutability":"view"},{"type":"function","name":"hashMyMessage","inputs":[{"name":"_message","type":"string","internalType":"string"}],"outputs":[{"name":"","type":"bytes32","internalType":"bytes32"}],"stateMutability":"pure"},{"type":"function","name":"myEthereumAddress","inputs":[],"outputs":[{"name":"","type":"address","internalType":"address"}],"stateMutability":"view"},{"type":"function","name":"myEthereumContractAddress","inputs":[],"outputs":[{"name":"","type":"address","internalType":"address"}],"stateMutability":"view"},{"type":"function","name":"myGrades","inputs":[{"name":"","type":"string","internalType":"string"}],"outputs":[{"name":"","type":"uint256","internalType":"uint256"}],"stateMutability":"view"},{"type":"function","name":"myInformations","inputs":[],"outputs":[{"name":"firstName","type":"string","internalType":"string"},{"name":"lastName","type":"string","internalType":"string"},{"name":"age","type":"uint8","internalType":"uint8"},{"name":"city","type":"string","internalType":"string"},{"name":"role","type":"uint8","internalType":"enum SmartContract.Role"}],"stateMutability":"view"},{"type":"function","name":"myPhoneNumber","inputs":[{"name":"","type":"uint256","internalType":"uint256"}],"outputs":[{"name":"","type":"string","internalType":"string"}],"stateMutability":"view"},{"type":"function","name":"whoIsTheBest","inputs":[],"outputs":[{"name":"","type":"bytes","internalType":"bytes"}],"stateMutability":"view"},{"type":"function","name":"withdrawFromBalance","inputs":[{"name":"_amount","type":"uint256","internalType":"uint256"}],"outputs":[],"stateMutability":"nonpayable"},{"type":"event","name":"BalanceUpdated","inputs":[{"name":"account","type":"address","indexed":true,"internalType":"address"},{"name":"newBalance","type":"uint256","indexed":false,"internalType":"uint256"}],"anonymous":false}],"bytecode":{"object":"0x601560005560291960015560c0604052601960809081527f506f4320697320676f6f642c20506f43206973206c6966652e0000000000000060a052600290620000499082620003e8565b506003805430610100026001600160a81b0319909116179055600480546001600160a01b031916331790556040805180820190915260208082527f4c75636173206327657374206c6520626573740000000000000000000000000090820152600590620000b79082620003e8565b506040805160e081018252600260a0820181815261181b60f11b60c084015282528251808401845281815261363560f01b602082810191909152808401919091528351808501855282815261037360f41b81830152838501528351808501855282815261363760f01b818301526060840152835180850190945290835261363160f01b908301526080810191909152620001569060079060056200026a565b503480156200016457600080fd5b506040805160e081018252600460a08201908152632537b43760e11b60c08301528152815180830183526003815262446f6560e81b60208281019190915280830191909152601e82840152825180840190935260088352674e657720596f726b60c01b908301526060810191909152608081016000905280516008908190620001ee9082620003e8565b5060208201516001820190620002059082620003e8565b50604082015160028201805460ff191660ff90921691909117905560608201516003820190620002369082620003e8565b50608082015160048201805460ff1916600183818111156200025c576200025c620004b4565b0217905550905050620004ca565b828054828255906000526020600020908101928215620002b5579160200282015b82811115620002b55782518290620002a49082620003e8565b50916020019190600101906200028b565b50620002c3929150620002c7565b5090565b80821115620002c3576000620002de8282620002e8565b50600101620002c7565b508054620002f69062000357565b6000825580601f1062000307575050565b601f0160209004906000526020600020908101906200032791906200032a565b50565b5b80821115620002c357600081556001016200032b565b634e487b7160e01b600052604160045260246000fd5b600181811c908216806200036c57607f821691505b6020821081036200038d57634e487b7160e01b600052602260045260246000fd5b50919050565b601f821115620003e3576000816000526020600020601f850160051c81016020861015620003be5750805b601f850160051c820191505b81811015620003df57828155600101620003ca565b5050505b505050565b81516001600160401b0381111562000404576200040462000341565b6200041c8162000415845462000357565b8462000393565b602080601f8311600181146200045457600084156200043b5750858301515b600019600386901b1c1916600185901b178555620003df565b600085815260208120601f198616915b82811015620004855788860151825594840194600190910190840162000464565b5085821015620004a45787850151600019600388901b60f8161c191681555b5050505050600190811b01905550565b634e487b7160e01b600052602160045260246000fd5b610e0c80620004da6000396000f3fe6080604052600436106101355760003560e01c8063ba9bc684116100ab578063edf821ab1161006f578063edf821ab14610360578063ef30ecac14610375578063f095d63a14610395578063f54b332d146103ba578063f9f8a89f146103e8578063fed4f3091461040857600080fd5b8063ba9bc684146102dc578063c0d01ac6146102fe578063cad89d6814610313578063d063068d14610336578063d11221511461034b57600080fd5b806353abb609116100fd57806353abb609146101fe57806355a206451461021e5780635e862275146102565780637601fb701461026b5780638a19e355146102a3578063a94b8551146102b657600080fd5b806327e235e31461013a5780632a8567e11461017a5780633159e273146101a45780634c738909146101c65780634c948f22146101e8575b600080fd5b34801561014657600080fd5b50610167610155366004610989565b600d6020526000908152604090205481565b6040519081526020015b60405180910390f35b34801561018657600080fd5b506003546101949060ff1681565b6040519015158152602001610171565b3480156101b057600080fd5b506101c46101bf3660046109cf565b61041d565b005b3480156101d257600080fd5b50336000908152600d6020526040902054610167565b3480156101f457600080fd5b5061016760005481565b34801561020a57600080fd5b506101676102193660046109cf565b61042d565b34801561022a57600080fd5b5060045461023e906001600160a01b031681565b6040516001600160a01b039091168152602001610171565b34801561026257600080fd5b50600054610167565b34801561027757600080fd5b506101676102863660046109cf565b805160208183018101805160068252928201919093012091525481565b6101c46102b1366004610a80565b61045d565b3480156102c257600080fd5b506102cb61052a565b604051610171959493929190610ae9565b3480156102e857600080fd5b506102f16106f0565b6040516101719190610b5c565b34801561030a57600080fd5b506102f1610785565b34801561031f57600080fd5b5060035461010090046001600160a01b031661023e565b34801561034257600080fd5b506102f1610794565b34801561035757600080fd5b506102f1610822565b34801561036c57600080fd5b506102f161084e565b34801561038157600080fd5b506101c4610390366004610a80565b61085b565b3480156103a157600080fd5b5060035461023e9061010090046001600160a01b031681565b3480156103c657600080fd5b506101c46103d5366004610b6f565b6003805460ff1916911515919091179055565b3480156103f457600080fd5b506102f1610403366004610a80565b6108dd565b34801561041457600080fd5b506101c4610908565b600b6104298282610c1c565b5050565b6000816040516020016104409190610cdc565b604051602081830303815290604052805190602001209050919050565b600454336000908152600d60209081526040918290205491519182526001600160a01b03909216917f8ad64a0ac7700dd8425ab0499f107cb6e2cd1581d803c5b8c1c79dcb8190b1af910160405180910390a2336000908152600d6020526040812080548392906104cf908490610d0e565b9091555050600454336000908152600d60209081526040918290205491519182526001600160a01b03909216917f8ad64a0ac7700dd8425ab0499f107cb6e2cd1581d803c5b8c1c79dcb8190b1af910160405180910390a250565b60088054819061053990610b91565b80601f016020809104026020016040519081016040528092919081815260200182805461056590610b91565b80156105b25780601f10610587576101008083540402835291602001916105b2565b820191906000526020600020905b81548152906001019060200180831161059557829003601f168201915b5050505050908060010180546105c790610b91565b80601f01602080910402602001604051908101604052809291908181526020018280546105f390610b91565b80156106405780601f1061061557610100808354040283529160200191610640565b820191906000526020600020905b81548152906001019060200180831161062357829003601f168201915b5050506002840154600385018054949560ff90921694919350915061066490610b91565b80601f016020809104026020016040519081016040528092919081815260200182805461069090610b91565b80156106dd5780601f106106b2576101008083540402835291602001916106dd565b820191906000526020600020905b8154815290600101906020018083116106c057829003601f168201915b5050506004909301549192505060ff1685565b60606008600301805461070290610b91565b80601f016020809104026020016040519081016040528092919081815260200182805461072e90610b91565b801561077b5780601f106107505761010080835404028352916020019161077b565b820191906000526020600020905b81548152906001019060200180831161075e57829003601f168201915b5050505050905090565b60606002805461070290610b91565b600580546107a190610b91565b80601f01602080910402602001604051908101604052809291908181526020018280546107cd90610b91565b801561081a5780601f106107ef5761010080835404028352916020019161081a565b820191906000526020600020905b8154815290600101906020018083116107fd57829003601f168201915b505050505081565b60405160609061083a90600890600990602001610d9a565b604051602081830303815290604052905090565b600280546107a190610b91565b336000908152600d60205260409020548111156108b65760405162461bcd60e51b8152602060048201526014602482015273496e73756666696369656e742062616c616e636560601b60448201526064015b60405180910390fd5b336000908152600d6020526040812080548392906108d5908490610dc3565b909155505050565b600781815481106108ed57600080fd5b9060005260206000200160009150905080546107a190610b91565b6004546001600160a01b031633146109705760405162461bcd60e51b815260206004820152602560248201527f4f6e6c7920746865206f776e65722063616e2063616c6c20746869732066756e60448201526431ba34b7b760d91b60648201526084016108ad565b60156000808282546109829190610d0e565b9091555050565b60006020828403121561099b57600080fd5b81356001600160a01b03811681146109b257600080fd5b9392505050565b634e487b7160e01b600052604160045260246000fd5b6000602082840312156109e157600080fd5b813567ffffffffffffffff808211156109f957600080fd5b818401915084601f830112610a0d57600080fd5b813581811115610a1f57610a1f6109b9565b604051601f8201601f19908116603f01168101908382118183101715610a4757610a476109b9565b81604052828152876020848701011115610a6057600080fd5b826020860160208301376000928101602001929092525095945050505050565b600060208284031215610a9257600080fd5b5035919050565b60005b83811015610ab4578181015183820152602001610a9c565b50506000910152565b60008151808452610ad5816020860160208601610a99565b601f01601f19169290920160200192915050565b60a081526000610afc60a0830188610abd565b8281036020840152610b0e8188610abd565b905060ff861660408401528281036060840152610b2b8186610abd565b91505060028310610b4c57634e487b7160e01b600052602160045260246000fd5b8260808301529695505050505050565b6020815260006109b26020830184610abd565b600060208284031215610b8157600080fd5b813580151581146109b257600080fd5b600181811c90821680610ba557607f821691505b602082108103610bc557634e487b7160e01b600052602260045260246000fd5b50919050565b601f821115610c17576000816000526020600020601f850160051c81016020861015610bf45750805b601f850160051c820191505b81811015610c1357828155600101610c00565b5050505b505050565b815167ffffffffffffffff811115610c3657610c366109b9565b610c4a81610c448454610b91565b84610bcb565b602080601f831160018114610c7f5760008415610c675750858301515b600019600386901b1c1916600185901b178555610c13565b600085815260208120601f198616915b82811015610cae57888601518255948401946001909101908401610c8f565b5085821015610ccc5787850151600019600388901b60f8161c191681555b5050505050600190811b01905550565b60008251610cee818460208701610a99565b9190910192915050565b634e487b7160e01b600052601160045260246000fd5b80820180821115610d2157610d21610cf8565b92915050565b60008154610d3481610b91565b60018281168015610d4c5760018114610d6157610d90565b60ff1984168752821515830287019450610d90565b8560005260208060002060005b85811015610d875781548a820152908401908201610d6e565b50505082870194505b5050505092915050565b6000610da68285610d27565b600160fd1b8152610dba6001820185610d27565b95945050505050565b81810381811115610d2157610d21610cf856fea264697066735822122047a0462ed32443635ed0b97b0ffa4edb35973dd35905b419d52e01dc8c479aee64736f6c63430008180033","linkReferences":{}},"methodIdentifiers":{"PoCIsWhat()":"edf821ab","_areYouABadPerson()":"2a8567e1","_getMyEthereumContractAddress()":"cad89d68","_setAreYouABadPerson(bool)":"f54b332d","addToBalance(uint256)":"8a19e355","balances(address)":"27e235e3","completeHalfAnswerOfLife()":"fed4f309","editMyCity(string)":"3159e273","getHalfAnswerOfLife()":"5e862275","getMyBalance()":"4c738909","getMyCity()":"ba9bc684","getMyFullName()":"d1122151","getPoCIsWhat()":"c0d01ac6","halfAnswerOfLife()":"4c948f22","hashMyMessage(string)":"53abb609","myEthereumAddress()":"55a20645","myEthereumContractAddress()":"f095d63a","myGrades(string)":"7601fb70","myInformations()":"a94b8551","myPhoneNumber(uint256)":"f9f8a89f","whoIsTheBest()":"d063068d","withdrawFromBalance(uint256)":"ef30ecac"},"id":20}